{
  "abi": [
    {
      "inputs": [
        {
          "internalType": "uint256",
          "name": "_minimumStaking",
          "type": "uint256"
        },
        {
          "internalType": "uint256",
          "name": "_roundIntervalInSec",
          "type": "uint256"
        }
      ],
      "stateMutability": "nonpayable",
      "type": "constructor"
    },
    {
      "inputs": [
        {
          "internalType": "uint256",
          "name": "",
          "type": "uint256"
        }
      ],
      "name": "InvalidStakeId",
      "type": "error"
    },
    {
      "inputs": [
        {
          "internalType": "uint256",
          "name": "",
          "type": "uint256"
        }
      ],
      "name": "NoStakingDetected",
      "type": "error"
    },
    {
      "inputs": [],
      "name": "NotAuthorized",
      "type": "error"
    },
    {
      "inputs": [],
      "name": "NothingToUnstake",
      "type": "error"
    },
    {
      "inputs": [
        {
          "internalType": "uint256",
          "name": "",
          "type": "uint256"
        }
      ],
      "name": "ZeroValue",
      "type": "error"
    },
    {
      "anonymous": false,
      "inputs": [
        {
          "indexed": true,
          "internalType": "address",
          "name": "previousOwner",
          "type": "address"
        },
        {
          "indexed": true,
          "internalType": "address",
          "name": "newOwner",
          "type": "address"
        }
      ],
      "name": "OwnershipTransferred",
      "type": "event"
    },
    {
      "anonymous": false,
      "inputs": [
        {
          "indexed": false,
          "internalType": "uint256",
          "name": "stakeId",
          "type": "uint256"
        }
      ],
      "name": "Staked",
      "type": "event"
    },
    {
      "anonymous": false,
      "inputs": [
        {
          "indexed": false,
          "internalType": "uint256",
          "name": "stakeId",
          "type": "uint256"
        }
      ],
      "name": "Unstaked",
      "type": "event"
    },
    {
      "inputs": [],
      "name": "currentRound",
      "outputs": [
        {
          "internalType": "uint256",
          "name": "",
          "type": "uint256"
        }
      ],
      "stateMutability": "view",
      "type": "function"
    },
    {
      "inputs": [
        {
          "internalType": "address",
          "name": "who",
          "type": "address"
        }
      ],
      "name": "getAccount",
      "outputs": [
        {
          "internalType": "address",
          "name": "",
          "type": "address"
        }
      ],
      "stateMutability": "view",
      "type": "function"
    },
    {
      "inputs": [
        {
          "internalType": "uint256",
          "name": "roundId",
          "type": "uint256"
        },
        {
          "internalType": "uint256",
          "name": "stakeId",
          "type": "uint256"
        }
      ],
      "name": "getStakeProfile",
      "outputs": [
        {
          "components": [
            {
              "internalType": "uint256",
              "name": "depositTime",
              "type": "uint256"
            },
            {
              "internalType": "uint256",
              "name": "celoAmount",
              "type": "uint256"
            },
            {
              "internalType": "uint256",
              "name": "pendingWithdrawals",
              "type": "uint256"
            },
            {
              "internalType": "address",
              "name": "user",
              "type": "address"
            }
          ],
          "internalType": "struct IVault.Staker",
          "name": "stk",
          "type": "tuple"
        }
      ],
      "stateMutability": "view",
      "type": "function"
    },
    {
      "inputs": [],
      "name": "lastRound",
      "outputs": [
        {
          "internalType": "uint256",
          "name": "",
          "type": "uint256"
        }
      ],
      "stateMutability": "view",
      "type": "function"
    },
    {
      "inputs": [],
      "name": "minimumStaking",
      "outputs": [
        {
          "internalType": "uint256",
          "name": "",
          "type": "uint256"
        }
      ],
      "stateMutability": "view",
      "type": "function"
    },
    {
      "inputs": [],
      "name": "owner",
      "outputs": [
        {
          "internalType": "address",
          "name": "",
          "type": "address"
        }
      ],
      "stateMutability": "view",
      "type": "function"
    },
    {
      "inputs": [],
      "name": "renounceOwnership",
      "outputs": [],
      "stateMutability": "nonpayable",
      "type": "function"
    },
    {
      "inputs": [],
      "name": "roundInterval",
      "outputs": [
        {
          "internalType": "uint256",
          "name": "",
          "type": "uint256"
        }
      ],
      "stateMutability": "view",
      "type": "function"
    },
    {
      "inputs": [
        {
          "internalType": "contract IERC20",
          "name": "_token",
          "type": "address"
        }
      ],
      "name": "setToken",
      "outputs": [],
      "stateMutability": "nonpayable",
      "type": "function"
    },
    {
      "inputs": [],
      "name": "stake",
      "outputs": [
        {
          "internalType": "uint256",
          "name": "roundId",
          "type": "uint256"
        },
        {
          "internalType": "uint256",
          "name": "stakeId",
          "type": "uint256"
        }
      ],
      "stateMutability": "payable",
      "type": "function"
    },
    {
      "inputs": [],
      "name": "token",
      "outputs": [
        {
          "internalType": "contract IERC20",
          "name": "",
          "type": "address"
        }
      ],
      "stateMutability": "view",
      "type": "function"
    },
    {
      "inputs": [
        {
          "internalType": "address",
          "name": "newOwner",
          "type": "address"
        }
      ],
      "name": "transferOwnership",
      "outputs": [],
      "stateMutability": "nonpayable",
      "type": "function"
    },
    {
      "inputs": [
        {
          "internalType": "uint256",
          "name": "roundId",
          "type": "uint256"
        },
        {
          "internalType": "uint256",
          "name": "stakeId",
          "type": "uint256"
        }
      ],
      "name": "unstake",
      "outputs": [
        {
          "internalType": "bool",
          "name": "",
          "type": "bool"
        }
      ],
      "stateMutability": "nonpayable",
      "type": "function"
    },
    {
      "stateMutability": "payable",
      "type": "receive"
    }
  ],
  "bytecode": {
    "object": "0x608060405234801561001057600080fd5b506040516111a83803806111a883398101604081905261002f916100fe565b610038336100ae565b671bc16d674ec8000082116100935760405162461bcd60e51b815260206004820152601760248201527f4d696e696d756d207374616b696e6720746f6f206c6f77000000000000000000604482015260640160405180910390fd5b60028290556100a3816001610122565b6003555061014d9050565b600080546001600160a01b038381166001600160a01b0319831681178455604051919092169283917f8be0079c531659141344cd1fd0a4f28419497f9722a3daafe3b4186f6b6457e09190a35050565b6000806040838503121561011157600080fd5b505080516020909101519092909150565b808202811582820484141761014757634e487b7160e01b600052601160045260246000fd5b92915050565b61104c8061015c6000396000f3fe6080604052600436106100c65760003560e01c80638a19c8bc1161007f578063d479ed7111610059578063d479ed7114610266578063f2fde38b1461027c578063fbcbc0f11461029c578063fc0c546a146102d557600080fd5b80638a19c8bc146101ee5780638da5cb5b146102045780639e2c8a5b1461023657600080fd5b8063144fa6d7146101015780633a4b66f114610121578063715018a614610143578063719b14e81461015857806382bc07e6146101b457806382f8b6e9146101d857600080fd5b366100fc57600034116100fa5760405162461bcd60e51b815260206004820152600060248201526044015b60405180910390fd5b005b600080fd5b34801561010d57600080fd5b506100fa61011c366004610aaa565b6102f5565b61012961031f565b604080519283526020830191909152015b60405180910390f35b34801561014f57600080fd5b506100fa6104c3565b34801561016457600080fd5b50610178610173366004610ac7565b6104d7565b60405161013a91908151815260208083015190820152604080830151908201526060918201516001600160a01b03169181019190915260800190565b3480156101c057600080fd5b506101ca60045481565b60405190815260200161013a565b3480156101e457600080fd5b506101ca60035481565b3480156101fa57600080fd5b506101ca60015481565b34801561021057600080fd5b506000546001600160a01b03165b6040516001600160a01b03909116815260200161013a565b34801561024257600080fd5b50610256610251366004610ac7565b61057e565b604051901515815260200161013a565b34801561027257600080fd5b506101ca60025481565b34801561028857600080fd5b506100fa610297366004610aaa565b610845565b3480156102a857600080fd5b5061021e6102b7366004610aaa565b6001600160a01b039081166000908152600760205260409020541690565b3480156102e157600080fd5b5060055461021e906001600160a01b031681565b6102fd6108be565b600580546001600160a01b0319166001600160a01b0392909216919091179055565b60008061032a610918565b6000818152600660205260409020546002549193509150341015610363576040516302ee6a2560e21b81523460048201526024016100f1565b336000908152600760205260409020546001600160a01b0316806103fb5760055460405133916001600160a01b03169061039c90610a88565b6001600160a01b03928316815291166020820152604001604051809103906000f0801580156103cf573d6000803e3d6000fd5b5033600090815260076020526040902080546001600160a01b0319166001600160a01b03831617905590505b60008381526006602081815260408084208151608081018352428152348185019081529281018681523360608301908152835460018082018655858a52878a20945160049092029094019081559451858401559051600285015551600390930180546001600160a01b0319166001600160a01b03909416939093179092559387905291905290547feebbaa86c348cb664e392b180fd0ff2e1998af9fa833ef69a778cb0b42d3ca27916104ad91610aff565b60405190815260200160405180910390a1509091565b6104cb6108be565b6104d56000610952565b565b61050b604051806080016040528060008152602001600081526020016000815260200160006001600160a01b031681525090565b600083815260066020526040902080548390811061052b5761052b610b12565b6000918252602091829020604080516080810182526004909302909101805483526001810154938301939093526002830154908201526003909101546001600160a01b0316606082015290505b92915050565b6000828152600660205260408120548210801561059d57506001548311155b6105d65760405162461bcd60e51b815260206004820152600a602482015269125b9d985b1a59081a5960b21b60448201526064016100f1565b60008381526006602052604081208054849081106105f6576105f6610b12565b6000918252602091829020604080516080810182526004909302909101805483526001810154938301939093526002830154908201526003909101546001600160a01b03166060820181905290915033146106645760405163ea8e4eb560e01b815260040160405180910390fd5b806020015160000361069157806020015160405163076ca5e760e21b81526004016100f191815260200190565b600354815161069f916109a2565b4210156106e15760405162461bcd60e51b815260206004820152601060248201526f5374616b65206e6f74206d617475726560801b60448201526064016100f1565b600084815260066020526040902080548490811061070157610701610b12565b600091825260208220600490910201818155600181018290556002810182905560030180546001600160a01b0319169055610751336000908152600760205260409020546001600160a01b031690565b90506000816001600160a01b0316836020015160405160006040518083038185875af1925050503d80600081146107a4576040519150601f19603f3d011682016040523d82523d6000602084013e6107a9565b606091505b50509050806107d45760405162461bcd60e51b815260206004820152600060248201526044016100f1565b6020808401516000888152600690925260408220546107f391906109b5565b905080156108055761080583826109db565b6040518681527f11725367022c3ff288940f4b5473aa61c2da6a24af7363a1128ee2401e8983b29060200160405180910390a15060019695505050505050565b61084d6108be565b6001600160a01b0381166108b25760405162461bcd60e51b815260206004820152602660248201527f4f776e61626c653a206e6577206f776e657220697320746865207a65726f206160448201526564647265737360d01b60648201526084016100f1565b6108bb81610952565b50565b6000546001600160a01b031633146104d55760405162461bcd60e51b815260206004820181905260248201527f4f776e61626c653a2063616c6c6572206973206e6f7420746865206f776e657260448201526064016100f1565b60015460035460045461092a916109a2565b421061094f57426004556001805490600061094483610b28565b919050555060015490505b90565b600080546001600160a01b038381166001600160a01b0319831681178455604051919092169283917f8be0079c531659141344cd1fd0a4f28419497f9722a3daafe3b4186f6b6457e09190a35050565b60006109ae8284610b41565b9392505050565b6000816000036109d1576109ca836002610a7c565b9050610578565b6109ae8383610a7c565b6005546040516340c10f1960e01b81526001600160a01b03848116600483015260248201849052909116906340c10f19906044016020604051808303816000875af1158015610a2e573d6000803e3d6000fd5b505050506040513d601f19601f82011682018060405250810190610a529190610b54565b610a785760405162461bcd60e51b815260206004820152600060248201526044016100f1565b5050565b60006109ae8284610b76565b61047e80610b9983390190565b6001600160a01b03811681146108bb57600080fd5b600060208284031215610abc57600080fd5b81356109ae81610a95565b60008060408385031215610ada57600080fd5b50508035926020909101359150565b634e487b7160e01b600052601160045260246000fd5b8181038181111561057857610578610ae9565b634e487b7160e01b600052603260045260246000fd5b600060018201610b3a57610b3a610ae9565b5060010190565b8082018082111561057857610578610ae9565b600060208284031215610b6657600080fd5b815180151581146109ae57600080fd5b600082610b9357634e487b7160e01b600052601260045260246000fd5b50049056fe608060405234801561001057600080fd5b5060405161047e38038061047e83398101604081905261002f91610078565b600080546001600160a01b039384166001600160a01b031991821617909155600180549290931691161790556100b2565b6001600160a01b038116811461007557600080fd5b50565b6000806040838503121561008b57600080fd5b825161009681610060565b60208401519092506100a781610060565b809150509250929050565b6103bd806100c16000396000f3fe60806040526004361061002d5760003560e01c8063ddcc27b014610068578063e7c4896d1461008857600080fd5b3661006357600034116100615760405162461bcd60e51b815260206004820152600060248201526044015b60405180910390fd5b005b600080fd5b34801561007457600080fd5b5061006161008336600461032c565b6100a8565b34801561009457600080fd5b506100616100a336600461032c565b610237565b6000546001600160a01b031633146100d557604051630b104a5b60e01b8152336004820152602401610058565b6001546040516370a0823160e01b815230600482015282916001600160a01b0316906370a0823190602401602060405180830381865afa15801561011d573d6000803e3d6000fd5b505050506040513d601f19601f820116820180604052508101906101419190610345565b10156101865760405162461bcd60e51b8152602060048201526014602482015273696e73756666696369656e742062616c616e636560601b6044820152606401610058565b60015460005460405163a9059cbb60e01b81526001600160a01b0391821660048201526024810184905291169063a9059cbb906044016020604051808303816000875af11580156101db573d6000803e3d6000fd5b505050506040513d601f19601f820116820180604052508101906101ff919061035e565b6102345760405162461bcd60e51b815260206004820152600660248201526511985a5b195960d21b6044820152606401610058565b50565b6000546001600160a01b0316331461026457604051630b104a5b60e01b8152336004820152602401610058565b804710156102ab5760405162461bcd60e51b8152602060048201526014602482015273696e73756666696369656e742062616c616e636560601b6044820152606401610058565b600080546040516001600160a01b039091169083908381818185875af1925050503d80600081146102f8576040519150601f19603f3d011682016040523d82523d6000602084013e6102fd565b606091505b50509050806103285760405162461bcd60e51b81526020600482015260006024820152604401610058565b5050565b60006020828403121561033e57600080fd5b5035919050565b60006020828403121561035757600080fd5b5051919050565b60006020828403121561037057600080fd5b8151801515811461038057600080fd5b939250505056fea2646970667358221220f414c05026c561989ee97d148efe34034cedb364deef5096ac5988bf27ac8adb64736f6c63430008110033a26469706673582212202e60d620472d85210720fd979b2bfe75d7a9ee986f7f8d8af9be6f05e4e56e1464736f6c63430008110033",
    "linkReferences": {}
  },
  "methodIdentifiers": {
    "currentRound()": "8a19c8bc",
    "getAccount(address)": "fbcbc0f1",
    "getStakeProfile(uint256,uint256)": "719b14e8",
    "lastRound()": "82bc07e6",
    "minimumStaking()": "d479ed71",
    "owner()": "8da5cb5b",
    "renounceOwnership()": "715018a6",
    "roundInterval()": "82f8b6e9",
    "setToken(address)": "144fa6d7",
    "stake()": "3a4b66f1",
    "token()": "fc0c546a",
    "transferOwnership(address)": "f2fde38b",
    "unstake(uint256,uint256)": "9e2c8a5b"
  },
  "id": 18
}