{
  "abi": [
    {
      "inputs": [
        {
          "internalType": "uint256",
          "name": "_minimumStaking",
          "type": "uint256"
        }
      ],
      "stateMutability": "nonpayable",
      "type": "constructor"
    },
    {
      "inputs": [
        {
          "internalType": "uint256",
          "name": "",
          "type": "uint256"
        }
      ],
      "name": "InvalidStakeId",
      "type": "error"
    },
    {
      "inputs": [
        {
          "internalType": "uint256",
          "name": "",
          "type": "uint256"
        }
      ],
      "name": "NoStakingDetected",
      "type": "error"
    },
    {
      "inputs": [],
      "name": "NotAuthorized",
      "type": "error"
    },
    {
      "inputs": [],
      "name": "NothingToUnstake",
      "type": "error"
    },
    {
      "inputs": [
        {
          "internalType": "uint256",
          "name": "",
          "type": "uint256"
        }
      ],
      "name": "ZeroValue",
      "type": "error"
    },
    {
      "anonymous": false,
      "inputs": [
        {
          "indexed": true,
          "internalType": "address",
          "name": "previousOwner",
          "type": "address"
        },
        {
          "indexed": true,
          "internalType": "address",
          "name": "newOwner",
          "type": "address"
        }
      ],
      "name": "OwnershipTransferred",
      "type": "event"
    },
    {
      "anonymous": false,
      "inputs": [
        {
          "indexed": false,
          "internalType": "uint256",
          "name": "",
          "type": "uint256"
        }
      ],
      "name": "Staked",
      "type": "event"
    },
    {
      "anonymous": false,
      "inputs": [
        {
          "indexed": false,
          "internalType": "uint256",
          "name": "",
          "type": "uint256"
        }
      ],
      "name": "Unstaked",
      "type": "event"
    },
    {
      "inputs": [],
      "name": "getStakeProfile",
      "outputs": [
        {
          "components": [
            {
              "internalType": "uint256",
              "name": "depositTime",
              "type": "uint256"
            },
            {
              "internalType": "uint256",
              "name": "celoAmount",
              "type": "uint256"
            },
            {
              "internalType": "address",
              "name": "account",
              "type": "address"
            }
          ],
          "internalType": "struct IVault.Staker",
          "name": "stk",
          "type": "tuple"
        }
      ],
      "stateMutability": "view",
      "type": "function"
    },
    {
      "inputs": [],
      "name": "minimumStaking",
      "outputs": [
        {
          "internalType": "uint256",
          "name": "",
          "type": "uint256"
        }
      ],
      "stateMutability": "view",
      "type": "function"
    },
    {
      "inputs": [],
      "name": "owner",
      "outputs": [
        {
          "internalType": "address",
          "name": "",
          "type": "address"
        }
      ],
      "stateMutability": "view",
      "type": "function"
    },
    {
      "inputs": [],
      "name": "renounceOwnership",
      "outputs": [],
      "stateMutability": "nonpayable",
      "type": "function"
    },
    {
      "inputs": [
        {
          "internalType": "contract IERC20",
          "name": "_token",
          "type": "address"
        }
      ],
      "name": "setToken",
      "outputs": [],
      "stateMutability": "nonpayable",
      "type": "function"
    },
    {
      "inputs": [],
      "name": "stake",
      "outputs": [
        {
          "internalType": "bool",
          "name": "",
          "type": "bool"
        }
      ],
      "stateMutability": "payable",
      "type": "function"
    },
    {
      "inputs": [],
      "name": "stakers",
      "outputs": [
        {
          "internalType": "uint256",
          "name": "",
          "type": "uint256"
        }
      ],
      "stateMutability": "view",
      "type": "function"
    },
    {
      "inputs": [],
      "name": "token",
      "outputs": [
        {
          "internalType": "contract IERC20",
          "name": "",
          "type": "address"
        }
      ],
      "stateMutability": "view",
      "type": "function"
    },
    {
      "inputs": [
        {
          "internalType": "address",
          "name": "newOwner",
          "type": "address"
        }
      ],
      "name": "transferOwnership",
      "outputs": [],
      "stateMutability": "nonpayable",
      "type": "function"
    },
    {
      "inputs": [],
      "name": "unstake",
      "outputs": [
        {
          "internalType": "bool",
          "name": "",
          "type": "bool"
        }
      ],
      "stateMutability": "nonpayable",
      "type": "function"
    },
    {
      "inputs": [],
      "name": "withdraw",
      "outputs": [],
      "stateMutability": "nonpayable",
      "type": "function"
    },
    {
      "stateMutability": "payable",
      "type": "receive"
    }
  ],
  "bytecode": {
    "object": "0x608060405234801561001057600080fd5b50604051610fde380380610fde83398101604081905261002f916100e4565b61003833610094565b6000811161008c5760405162461bcd60e51b815260206004820152601760248201527f4d696e696d756d207374616b696e6720746f6f206c6f77000000000000000000604482015260640160405180910390fd5b6001556100fd565b600080546001600160a01b038381166001600160a01b0319831681178455604051919092169283917f8be0079c531659141344cd1fd0a4f28419497f9722a3daafe3b4186f6b6457e09190a35050565b6000602082840312156100f657600080fd5b5051919050565b610ed28061010c6000396000f3fe6080604052600436106100a05760003560e01c8063715018a611610064578063715018a6146101825780638da5cb5b14610197578063d479ed71146101c9578063f2fde38b146101ed578063fc0c546a1461020d578063fed1252a1461022d57600080fd5b80630f564071146100db578063144fa6d7146101205780632def6620146101405780633a4b66f1146101655780633ccfd60b1461016d57600080fd5b366100d657600034116100d45760405162461bcd60e51b815260206004820152600060248201526044015b60405180910390fd5b005b600080fd5b3480156100e757600080fd5b506100f0610243565b604080518251815260208084015190820152918101516001600160a01b0316908201526060015b60405180910390f35b34801561012c57600080fd5b506100d461013b3660046109c8565b61027e565b34801561014c57600080fd5b506101556102a8565b6040519015158152602001610117565b610155610388565b34801561017957600080fd5b506100d46104ee565b34801561018e57600080fd5b506100d46105b5565b3480156101a357600080fd5b506000546001600160a01b03165b6040516001600160a01b039091168152602001610117565b3480156101d557600080fd5b506101df60015481565b604051908152602001610117565b3480156101f957600080fd5b506100d46102083660046109c8565b6105c9565b34801561021957600080fd5b506003546101b1906001600160a01b031681565b34801561023957600080fd5b506101df60025481565b6102706040518060600160405280600081526020016000815260200160006001600160a01b031681525090565b61027933610642565b905090565b6102866106b3565b600380546001600160a01b0319166001600160a01b0392909216919091179055565b33600090815260046020908152604080832081516060810183528154815260018201549381018490526002909101546001600160a01b03169181019190915290820361030f57806020015160405163076ca5e760e21b81526004016100cb91815260200190565b60408101516001600160a01b03166103695760405162461bcd60e51b815260206004820152601960248201527f4163636f756e7420616e6f6d616c6c792064657465637465640000000000000060448201526064016100cb565b61038081604001518260200151836000015161070d565b600191505090565b600080600061039633610642565b90506001543410156103bd576040516302ee6a2560e21b81523460048201526024016100cb565b604081015191506001600160a01b03821661041d576003546040516001600160a01b03909116906103ed906109a6565b6001600160a01b039091168152602001604051809103906000f080158015610419573d6000803e3d6000fd5b5091505b60208101511561043a5761043a828260200151836000015161070d565b604051806060016040528061044c4290565b8152346020808301919091526001600160a01b0385811660409384015233600090815260048352838120855181559285015160018401559390920151600291820180546001600160a01b03191691909316179091558054916104ad836109fb565b90915550506040513481527feebbaa86c348cb664e392b180fd0ff2e1998af9fa833ef69a778cb0b42d3ca279060200160405180910390a160019250505090565b60006104f933610642565b6040908101519051633ce051f560e11b81523360048201529091506001600160a01b038216906379c0a3ea90602401600060405180830381600087803b15801561054257600080fd5b505af1158015610556573d6000803e3d6000fd5b5050604051627a79d960e91b81523360048201526001600160a01b038416925063f4f3b2009150602401600060405180830381600087803b15801561059a57600080fd5b505af11580156105ae573d6000803e3d6000fd5b5050505050565b6105bd6106b3565b6105c76000610820565b565b6105d16106b3565b6001600160a01b0381166106365760405162461bcd60e51b815260206004820152602660248201527f4f776e61626c653a206e6577206f776e657220697320746865207a65726f206160448201526564647265737360d01b60648201526084016100cb565b61063f81610820565b50565b61066f6040518060600160405280600081526020016000815260200160006001600160a01b031681525090565b506001600160a01b03908116600090815260046020908152604091829020825160608101845281548152600182015492810192909252600201549092169082015290565b6000546001600160a01b031633146105c75760405162461bcd60e51b815260206004820181905260248201527f4f776e61626c653a2063616c6c6572206973206e6f7420746865206f776e657260448201526064016100cb565b6002805490600061071d83610a14565b909155505033600090815260046020526040808220600101829055516001600160a01b0385169084908381818185875af1925050503d806000811461077e576040519150601f19603f3d011682016040523d82523d6000602084013e610783565b606091505b50509050806107c85760405162461bcd60e51b8152602060048201526011602482015270151c985b9cd9995c881c995a9958dd1959607a1b60448201526064016100cb565b60006107d48484610870565b905080156107e6576107e685826108da565b6040518481527f11725367022c3ff288940f4b5473aa61c2da6a24af7363a1128ee2401e8983b29060200160405180910390a15050505050565b600080546001600160a01b038381166001600160a01b0319831681178455604051919092169283917f8be0079c531659141344cd1fd0a4f28419497f9722a3daafe3b4186f6b6457e09190a35050565b6000603c4283810361088d5766038d7ea4c68000925050506108d4565b838111156108d15760006108a1828661097b565b905080156108c4576108bd836108b7838961098e565b9061099a565b93506108cf565b66038d7ea4c6800093505b505b50505b92915050565b6003546040516340c10f1960e01b81526001600160a01b03848116600483015260248201849052909116906340c10f19906044016020604051808303816000875af115801561092d573d6000803e3d6000fd5b505050506040513d601f19601f820116820180604052508101906109519190610a2b565b6109775760405162461bcd60e51b815260206004820152600060248201526044016100cb565b5050565b60006109878284610a4d565b9392505050565b60006109878284610a60565b60006109878284610a77565b61040380610a9a83390190565b6001600160a01b038116811461063f57600080fd5b6000602082840312156109da57600080fd5b8135610987816109b3565b634e487b7160e01b600052601160045260246000fd5b600060018201610a0d57610a0d6109e5565b5060010190565b600081610a2357610a236109e5565b506000190190565b600060208284031215610a3d57600080fd5b8151801515811461098757600080fd5b818103818111156108d4576108d46109e5565b80820281158282048414176108d4576108d46109e5565b600082610a9457634e487b7160e01b600052601260045260246000fd5b50049056fe608060405260405161040338038061040383398101604081905261002291610055565b60008054336001600160a01b031991821617909155600180549091166001600160a01b0392909216919091179055610085565b60006020828403121561006757600080fd5b81516001600160a01b038116811461007e57600080fd5b9392505050565b61036f806100946000396000f3fe60806040526004361061002d5760003560e01c806379c0a3ea1461006c578063f4f3b2001461008e57600080fd5b36610067576040513481527ffd51b9a62feedc9cf075eaada5ee2e87aaaa00219195f21375592867215b3c5e9060200160405180910390a1005b600080fd5b34801561007857600080fd5b5061008c6100873660046102ce565b6100ae565b005b34801561009a57600080fd5b5061008c6100a93660046102ce565b61017c565b6000546001600160a01b031633146100e057604051630b104a5b60e01b81523360048201526024015b60405180910390fd5b60405147906000906001600160a01b0384169083908381818185875af1925050503d806000811461012d576040519150601f19603f3d011682016040523d82523d6000602084013e610132565b606091505b50509050806101775760405162461bcd60e51b81526020600482015260116024820152701dda5d1a191c985dd85b0819985a5b1959607a1b60448201526064016100d7565b505050565b6000546001600160a01b031633146101a957604051630b104a5b60e01b81523360048201526024016100d7565b6001546040516370a0823160e01b81523060048201526000916001600160a01b0316906370a0823190602401602060405180830381865afa1580156101f2573d6000803e3d6000fd5b505050506040513d601f19601f8201168201806040525081019061021691906102fe565b905080156102ca5760015460405163a9059cbb60e01b81526001600160a01b038481166004830152602482018490529091169063a9059cbb906044016020604051808303816000875af1158015610271573d6000803e3d6000fd5b505050506040513d601f19601f820116820180604052508101906102959190610317565b6102ca5760405162461bcd60e51b815260206004820152600660248201526511985a5b195960d21b60448201526064016100d7565b5050565b6000602082840312156102e057600080fd5b81356001600160a01b03811681146102f757600080fd5b9392505050565b60006020828403121561031057600080fd5b5051919050565b60006020828403121561032957600080fd5b815180151581146102f757600080fdfea264697066735822122025bbb4b8a17f3e3e4b12e12b816475640439ac1b5117dddcb15d55509b72d8d664736f6c63430008110033a2646970667358221220b12204cb8d745d52056bf7de98ac6b5e31c146c07f6851915b2333a9f81edf2964736f6c63430008110033",
    "linkReferences": {}
  },
  "methodIdentifiers": {
    "getStakeProfile()": "0f564071",
    "minimumStaking()": "d479ed71",
    "owner()": "8da5cb5b",
    "renounceOwnership()": "715018a6",
    "setToken(address)": "144fa6d7",
    "stake()": "3a4b66f1",
    "stakers()": "fed1252a",
    "token()": "fc0c546a",
    "transferOwnership(address)": "f2fde38b",
    "unstake()": "2def6620",
    "withdraw()": "3ccfd60b"
  },
  "id": 18
}