{
  "abi": [
    {
      "inputs": [
        {
          "internalType": "address",
          "name": "_owner",
          "type": "address"
        },
        {
          "internalType": "contract IERC20",
          "name": "_rewardToken",
          "type": "address"
        }
      ],
      "stateMutability": "nonpayable",
      "type": "constructor"
    },
    {
      "inputs": [
        {
          "internalType": "address",
          "name": "",
          "type": "address"
        }
      ],
      "name": "UnAuthorizedCaller",
      "type": "error"
    },
    {
      "inputs": [
        {
          "internalType": "uint256",
          "name": "amount",
          "type": "uint256"
        }
      ],
      "name": "withdrawalCelo",
      "outputs": [],
      "stateMutability": "nonpayable",
      "type": "function"
    },
    {
      "inputs": [
        {
          "internalType": "uint256",
          "name": "amount",
          "type": "uint256"
        }
      ],
      "name": "withdrawalERC20",
      "outputs": [],
      "stateMutability": "nonpayable",
      "type": "function"
    },
    {
      "stateMutability": "payable",
      "type": "receive"
    }
  ],
  "bytecode": {
    "object": "0x608060405234801561001057600080fd5b5060405161047e38038061047e83398101604081905261002f91610078565b600080546001600160a01b039384166001600160a01b031991821617909155600180549290931691161790556100b2565b6001600160a01b038116811461007557600080fd5b50565b6000806040838503121561008b57600080fd5b825161009681610060565b60208401519092506100a781610060565b809150509250929050565b6103bd806100c16000396000f3fe60806040526004361061002d5760003560e01c8063ddcc27b014610068578063e7c4896d1461008857600080fd5b3661006357600034116100615760405162461bcd60e51b815260206004820152600060248201526044015b60405180910390fd5b005b600080fd5b34801561007457600080fd5b5061006161008336600461032c565b6100a8565b34801561009457600080fd5b506100616100a336600461032c565b610237565b6000546001600160a01b031633146100d557604051630b104a5b60e01b8152336004820152602401610058565b6001546040516370a0823160e01b815230600482015282916001600160a01b0316906370a0823190602401602060405180830381865afa15801561011d573d6000803e3d6000fd5b505050506040513d601f19601f820116820180604052508101906101419190610345565b10156101865760405162461bcd60e51b8152602060048201526014602482015273696e73756666696369656e742062616c616e636560601b6044820152606401610058565b60015460005460405163a9059cbb60e01b81526001600160a01b0391821660048201526024810184905291169063a9059cbb906044016020604051808303816000875af11580156101db573d6000803e3d6000fd5b505050506040513d601f19601f820116820180604052508101906101ff919061035e565b6102345760405162461bcd60e51b815260206004820152600660248201526511985a5b195960d21b6044820152606401610058565b50565b6000546001600160a01b0316331461026457604051630b104a5b60e01b8152336004820152602401610058565b804710156102ab5760405162461bcd60e51b8152602060048201526014602482015273696e73756666696369656e742062616c616e636560601b6044820152606401610058565b600080546040516001600160a01b039091169083908381818185875af1925050503d80600081146102f8576040519150601f19603f3d011682016040523d82523d6000602084013e6102fd565b606091505b50509050806103285760405162461bcd60e51b81526020600482015260006024820152604401610058565b5050565b60006020828403121561033e57600080fd5b5035919050565b60006020828403121561035757600080fd5b5051919050565b60006020828403121561037057600080fd5b8151801515811461038057600080fd5b939250505056fea2646970667358221220f414c05026c561989ee97d148efe34034cedb364deef5096ac5988bf27ac8adb64736f6c63430008110033",
    "linkReferences": {}
  },
  "methodIdentifiers": {
    "withdrawalCelo(uint256)": "e7c4896d",
    "withdrawalERC20(uint256)": "ddcc27b0"
  },
  "id": 3
}