{
  "abi": [
    {
      "inputs": [
        {
          "internalType": "contract IERC20",
          "name": "_rewardToken",
          "type": "address"
        }
      ],
      "stateMutability": "payable",
      "type": "constructor"
    },
    {
      "inputs": [
        {
          "internalType": "address",
          "name": "",
          "type": "address"
        }
      ],
      "name": "UnAuthorizedCaller",
      "type": "error"
    },
    {
      "anonymous": false,
      "inputs": [
        {
          "indexed": false,
          "internalType": "uint256",
          "name": "",
          "type": "uint256"
        }
      ],
      "name": "CeloReceived",
      "type": "event"
    },
    {
      "inputs": [
        {
          "internalType": "address",
          "name": "to",
          "type": "address"
        }
      ],
      "name": "withdrawCelo",
      "outputs": [],
      "stateMutability": "nonpayable",
      "type": "function"
    },
    {
      "inputs": [
        {
          "internalType": "address",
          "name": "to",
          "type": "address"
        }
      ],
      "name": "withdrawERC20",
      "outputs": [],
      "stateMutability": "nonpayable",
      "type": "function"
    },
    {
      "stateMutability": "payable",
      "type": "receive"
    }
  ],
  "bytecode": {
    "object": "0x608060405260405161040338038061040383398101604081905261002291610055565b60008054336001600160a01b031991821617909155600180549091166001600160a01b0392909216919091179055610085565b60006020828403121561006757600080fd5b81516001600160a01b038116811461007e57600080fd5b9392505050565b61036f806100946000396000f3fe60806040526004361061002d5760003560e01c806379c0a3ea1461006c578063f4f3b2001461008e57600080fd5b36610067576040513481527ffd51b9a62feedc9cf075eaada5ee2e87aaaa00219195f21375592867215b3c5e9060200160405180910390a1005b600080fd5b34801561007857600080fd5b5061008c6100873660046102ce565b6100ae565b005b34801561009a57600080fd5b5061008c6100a93660046102ce565b61017c565b6000546001600160a01b031633146100e057604051630b104a5b60e01b81523360048201526024015b60405180910390fd5b60405147906000906001600160a01b0384169083908381818185875af1925050503d806000811461012d576040519150601f19603f3d011682016040523d82523d6000602084013e610132565b606091505b50509050806101775760405162461bcd60e51b81526020600482015260116024820152701dda5d1a191c985dd85b0819985a5b1959607a1b60448201526064016100d7565b505050565b6000546001600160a01b031633146101a957604051630b104a5b60e01b81523360048201526024016100d7565b6001546040516370a0823160e01b81523060048201526000916001600160a01b0316906370a0823190602401602060405180830381865afa1580156101f2573d6000803e3d6000fd5b505050506040513d601f19601f8201168201806040525081019061021691906102fe565b905080156102ca5760015460405163a9059cbb60e01b81526001600160a01b038481166004830152602482018490529091169063a9059cbb906044016020604051808303816000875af1158015610271573d6000803e3d6000fd5b505050506040513d601f19601f820116820180604052508101906102959190610317565b6102ca5760405162461bcd60e51b815260206004820152600660248201526511985a5b195960d21b60448201526064016100d7565b5050565b6000602082840312156102e057600080fd5b81356001600160a01b03811681146102f757600080fd5b9392505050565b60006020828403121561031057600080fd5b5051919050565b60006020828403121561032957600080fd5b815180151581146102f757600080fdfea26469706673582212208567e6a9e41e1e150597fdc9d493d2e08fd38b8208c7f84f67161a9c85a5760d64736f6c63430008110033",
    "linkReferences": {}
  },
  "methodIdentifiers": {
    "withdrawCelo(address)": "79c0a3ea",
    "withdrawERC20(address)": "f4f3b200"
  },
  "id": 19
}